{
  "contractName": "Voting",
  "abi": [
    {
      "inputs": [],
      "stateMutability": "nonpayable",
      "type": "constructor"
    },
    {
      "anonymous": false,
      "inputs": [
        {
          "indexed": true,
          "internalType": "uint256",
          "name": "candidateId",
          "type": "uint256"
        }
      ],
      "name": "VotedEvent",
      "type": "event"
    },
    {
      "inputs": [
        {
          "internalType": "uint256",
          "name": "",
          "type": "uint256"
        }
      ],
      "name": "candidates",
      "outputs": [
        {
          "internalType": "uint256",
          "name": "id",
          "type": "uint256"
        },
        {
          "internalType": "string",
          "name": "name",
          "type": "string"
        },
        {
          "internalType": "uint256",
          "name": "voteCount",
          "type": "uint256"
        }
      ],
      "stateMutability": "view",
      "type": "function",
      "constant": true
    },
    {
      "inputs": [],
      "name": "candidatesCount",
      "outputs": [
        {
          "internalType": "uint256",
          "name": "",
          "type": "uint256"
        }
      ],
      "stateMutability": "view",
      "type": "function",
      "constant": true
    },
    {
      "inputs": [
        {
          "internalType": "address",
          "name": "",
          "type": "address"
        }
      ],
      "name": "voters",
      "outputs": [
        {
          "internalType": "bool",
          "name": "",
          "type": "bool"
        }
      ],
      "stateMutability": "view",
      "type": "function",
      "constant": true
    },
    {
      "inputs": [
        {
          "internalType": "uint256",
          "name": "candidateId",
          "type": "uint256"
        }
      ],
      "name": "vote",
      "outputs": [],
      "stateMutability": "nonpayable",
      "type": "function"
    },
    {
      "inputs": [
        {
          "internalType": "uint256",
          "name": "candidateId",
          "type": "uint256"
        }
      ],
      "name": "getCandidate",
      "outputs": [
        {
          "internalType": "uint256",
          "name": "",
          "type": "uint256"
        },
        {
          "internalType": "string",
          "name": "",
          "type": "string"
        },
        {
          "internalType": "uint256",
          "name": "",
          "type": "uint256"
        }
      ],
      "stateMutability": "view",
      "type": "function",
      "constant": true
    },
    {
      "inputs": [
        {
          "internalType": "address",
          "name": "voter",
          "type": "address"
        }
      ],
      "name": "hasVoted",
      "outputs": [
        {
          "internalType": "bool",
          "name": "",
          "type": "bool"
        }
      ],
      "stateMutability": "view",
      "type": "function",
      "constant": true
    }
  ],
  "bytecode": "0x60806040523480156200001157600080fd5b50620000586040518060400160405280600181526020017f4100000000000000000000000000000000000000000000000000000000000000815250620000ea60201b60201c565b6200009e6040518060400160405280600181526020017f4200000000000000000000000000000000000000000000000000000000000000815250620000ea60201b60201c565b620000e46040518060400160405280600181526020017f4300000000000000000000000000000000000000000000000000000000000000815250620000ea60201b60201c565b62000545565b60026000815480929190620000ff90620001a1565b919050555060405180606001604052806002548152602001828152602001600081525060008060025481526020019081526020016000206000820151816000015560208201518160010190816200015791906200045e565b506040820151816002015590505050565b7f4e487b7100000000000000000000000000000000000000000000000000000000600052601160045260246000fd5b6000819050919050565b6000620001ae8262000197565b91507fffffffffffffffffffffffffffffffffffffffffffffffffffffffffffffffff8203620001e357620001e262000168565b5b600182019050919050565b600081519050919050565b7f4e487b7100000000000000000000000000000000000000000000000000000000600052604160045260246000fd5b7f4e487b7100000000000000000000000000000000000000000000000000000000600052602260045260246000fd5b600060028204905060018216806200027057607f821691505b60208210810362000286576200028562000228565b5b50919050565b60008190508160005260206000209050919050565b60006020601f8301049050919050565b600082821b905092915050565b600060088302620002f07fffffffffffffffffffffffffffffffffffffffffffffffffffffffffffffffff82620002b1565b620002fc8683620002b1565b95508019841693508086168417925050509392505050565b6000819050919050565b60006200033f62000339620003338462000197565b62000314565b62000197565b9050919050565b6000819050919050565b6200035b836200031e565b620003736200036a8262000346565b848454620002be565b825550505050565b600090565b6200038a6200037b565b6200039781848462000350565b505050565b5b81811015620003bf57620003b360008262000380565b6001810190506200039d565b5050565b601f8211156200040e57620003d8816200028c565b620003e384620002a1565b81016020851015620003f3578190505b6200040b6200040285620002a1565b8301826200039c565b50505b505050565b600082821c905092915050565b6000620004336000198460080262000413565b1980831691505092915050565b60006200044e838362000420565b9150826002028217905092915050565b6200046982620001ee565b67ffffffffffffffff811115620004855762000484620001f9565b5b62000491825462000257565b6200049e828285620003c3565b600060209050601f831160018114620004d65760008415620004c1578287015190505b620004cd858262000440565b8655506200053d565b601f198416620004e6866200028c565b60005b828110156200051057848901518255600182019150602085019450602081019050620004e9565b868310156200053057848901516200052c601f89168262000420565b8355505b6001600288020188555050505b505050505050565b61096380620005556000396000f3fe608060405234801561001057600080fd5b50600436106100625760003560e01c80630121b93f1461006757806309eef43e146100835780632d35a8a2146100b35780633477ee2e146100d157806335b8e82014610103578063a3ec138d14610135575b600080fd5b610081600480360381019061007c9190610598565b610165565b005b61009d60048036038101906100989190610623565b6102f5565b6040516100aa919061066b565b60405180910390f35b6100bb61034b565b6040516100c89190610695565b60405180910390f35b6100eb60048036038101906100e69190610598565b610351565b6040516100fa93929190610740565b60405180910390f35b61011d60048036038101906101189190610598565b610403565b60405161012c93929190610740565b60405180910390f35b61014f600480360381019061014a9190610623565b61053d565b60405161015c919061066b565b60405180910390f35b600160003373ffffffffffffffffffffffffffffffffffffffff1673ffffffffffffffffffffffffffffffffffffffff16815260200190815260200160002060009054906101000a900460ff16156101f2576040517f08c379a00000000000000000000000000000000000000000000000000000000081526004016101e9906107ca565b60405180910390fd5b60008111801561020457506002548111155b610243576040517f08c379a000000000000000000000000000000000000000000000000000000000815260040161023a90610836565b60405180910390fd5b60018060003373ffffffffffffffffffffffffffffffffffffffff1673ffffffffffffffffffffffffffffffffffffffff16815260200190815260200160002060006101000a81548160ff02191690831515021790555060008082815260200190815260200160002060020160008154809291906102c090610885565b9190505550807fe447c5464cb203c1da94b4db8588d3cbf313ce4a489122f6b88e87f465b2810e60405160405180910390a250565b6000600160008373ffffffffffffffffffffffffffffffffffffffff1673ffffffffffffffffffffffffffffffffffffffff16815260200190815260200160002060009054906101000a900460ff169050919050565b60025481565b600060205280600052604060002060009150905080600001549080600101805461037a906108fc565b80601f01602080910402602001604051908101604052809291908181526020018280546103a6906108fc565b80156103f35780601f106103c8576101008083540402835291602001916103f3565b820191906000526020600020905b8154815290600101906020018083116103d657829003601f168201915b5050505050908060020154905083565b600060606000808411801561041a57506002548411155b610459576040517f08c379a000000000000000000000000000000000000000000000000000000000815260040161045090610836565b60405180910390fd5b600080600086815260200190815260200160002060405180606001604052908160008201548152602001600182018054610492906108fc565b80601f01602080910402602001604051908101604052809291908181526020018280546104be906108fc565b801561050b5780601f106104e05761010080835404028352916020019161050b565b820191906000526020600020905b8154815290600101906020018083116104ee57829003601f168201915b505050505081526020016002820154815250509050806000015181602001518260400151935093509350509193909250565b60016020528060005260406000206000915054906101000a900460ff1681565b600080fd5b6000819050919050565b61057581610562565b811461058057600080fd5b50565b6000813590506105928161056c565b92915050565b6000602082840312156105ae576105ad61055d565b5b60006105bc84828501610583565b91505092915050565b600073ffffffffffffffffffffffffffffffffffffffff82169050919050565b60006105f0826105c5565b9050919050565b610600816105e5565b811461060b57600080fd5b50565b60008135905061061d816105f7565b92915050565b6000602082840312156106395761063861055d565b5b60006106478482850161060e565b91505092915050565b60008115159050919050565b61066581610650565b82525050565b6000602082019050610680600083018461065c565b92915050565b61068f81610562565b82525050565b60006020820190506106aa6000830184610686565b92915050565b600081519050919050565b600082825260208201905092915050565b60005b838110156106ea5780820151818401526020810190506106cf565b60008484015250505050565b6000601f19601f8301169050919050565b6000610712826106b0565b61071c81856106bb565b935061072c8185602086016106cc565b610735816106f6565b840191505092915050565b60006060820190506107556000830186610686565b81810360208301526107678185610707565b90506107766040830184610686565b949350505050565b7f596f75206861766520616c726561647920766f7465642e000000000000000000600082015250565b60006107b46017836106bb565b91506107bf8261077e565b602082019050919050565b600060208201905081810360008301526107e3816107a7565b9050919050565b7f496e76616c69642063616e6469646174652e0000000000000000000000000000600082015250565b60006108206012836106bb565b915061082b826107ea565b602082019050919050565b6000602082019050818103600083015261084f81610813565b9050919050565b7f4e487b7100000000000000000000000000000000000000000000000000000000600052601160045260246000fd5b600061089082610562565b91507fffffffffffffffffffffffffffffffffffffffffffffffffffffffffffffffff82036108c2576108c1610856565b5b600182019050919050565b7f4e487b7100000000000000000000000000000000000000000000000000000000600052602260045260246000fd5b6000600282049050600182168061091457607f821691505b602082108103610927576109266108cd565b5b5091905056fea264697066735822122098f7af9339b159e5bcc65a7f84f9d8282f5d8f61921261b4dc47678e9b7bc65a64736f6c63430008130033",
  "immutableReferences": {},
  "source": "// SPDX-License-Identifier: MIT\r\npragma solidity ^0.8.0;\r\n\r\ncontract Voting {\r\n    struct Candidate {\r\n        uint id;\r\n        string name;\r\n        uint voteCount;\r\n    }\r\n    \r\n    mapping(uint => Candidate) public candidates;\r\n    mapping(address => bool) public voters;\r\n    uint public candidatesCount;\r\n    \r\n    event VotedEvent(uint indexed candidateId);\r\n    \r\n    constructor() {\r\n        addCandidate(\"A\");\r\n        addCandidate(\"B\");\r\n        addCandidate(\"C\");\r\n    }\r\n    \r\n    function addCandidate(string memory name) private {\r\n        candidatesCount++;\r\n        candidates[candidatesCount] = Candidate(candidatesCount, name, 0);\r\n    }\r\n    \r\n    function vote(uint candidateId) public {\r\n        require(!voters[msg.sender], \"You have already voted.\");\r\n        require(candidateId > 0 && candidateId <= candidatesCount, \"Invalid candidate.\");\r\n        \r\n        voters[msg.sender] = true;\r\n        candidates[candidateId].voteCount++;\r\n        \r\n        emit VotedEvent(candidateId);\r\n    }\r\n    \r\n    function getCandidate(uint candidateId) public view returns (uint, string memory, uint) {\r\n        require(candidateId > 0 && candidateId <= candidatesCount, \"Invalid candidate.\");\r\n        Candidate memory candidate = candidates[candidateId];\r\n        return (candidate.id, candidate.name, candidate.voteCount);\r\n    }\r\n    \r\n    function hasVoted(address voter) public view returns (bool) {\r\n        return voters[voter];\r\n    }\r\n}",
  "sourcePath": "C:\\Users\\keert\\OneDrive\\Desktop\\pr\\1\\contracts\\Voting.sol",
  "compiler": {
    "name": "solc",
    "version": "0.8.19+commit.7dd6d404.Emscripten.clang"
  },
  "schemaVersion": "3.4.16",
  "updatedAt": "2025-05-28T05:01:31.851Z",
  "networkType": "ethereum",
  "devdoc": {
    "kind": "dev",
    "methods": {},
    "version": 1
  },
  "userdoc": {
    "kind": "user",
    "methods": {},
    "version": 1
  }
}